:100E0400312E53746172742047616D6500322E482F
:100E14006967682053636F726500332E44696666A0
:070E24006963756C7479002D
:060CD300013B00013A00A4
:03000B00020C9054
:100C9000C0E0C0F0C083C082C0D075D000C000C02A
:100CA00001C002C003C004C005C006C007758CD8CF
:100CB000758AF0053B120F83D007D006D005D0040B
:100CC000D003D002D001D000D0D0D082D083D0F0D9
:030CD000D0E0323F
:10074E00120D887BFF7A007900E4FD7F0A12053ACC
:10075E007BFF7A007900E4FD7F1E12053A7BFF7A5B
:10076E00007900E4FD7F3212053A7BFF7A007900B2
:10077E00E4FD7F4612053A7BFF7A007900E4FD7FA7
:10078E005A12053A7BFF7A007900E4FD7F6E12055E
:10079E003A7BFF7A0E79047D027F0A120C497BFFA9
:1007AE007A0E79117D037F0A120C497BFF7A0E793E
:1007BE001E7D047F0A120C497BFF7A0079007D288A
:1007CE007F0A12053A7BFF7A0079007D287F1E1280
:1007DE00053A7BFF7A0079007D287F3212053A7B3D
:1007EE00FF7A0079007D287F4612053A7BFF7A005A
:1007FE0079007D387F0A12053A7BFF7A0079007DF9
:10080E00387F1E12053A7BFF7A0079007D387F32E1
:10081E0012053A7BFF7A0079007D387F4602053A51
:100E5200120EE0EF7009E53AD394004002153ABF52
:100E62000109E53AC394025002053ABF0407E53A84
:050E7200700312097776
:010E77002258
:0A0FD300120EE0BF08037521012291
:0C000E00120EE0BF0406E4F52112074EBC
:01001A0022C3
:100D1200758921758CD8758AF0D2A9D28CD2AF127E
:100D22000EFD12100012074EE4F521E52114600FAA
:100D3200146011146013240370F1120E5280EC122D
:0E0D4200064780E7120FD380E212000E80DD1C
:100DDC0053756E3A200053636F72653A2000485089
:100DEC003A200000000000321E0000640F021400C4
:080DFC003264001E0F0000022A
:100CD90001210002270064021F0000012303012AE9
:100CE90002012504012901012600012200011E003B
:060CF900012400011D00B2
:100B8400E4FEEE75F005A42404F582E43400F58354
:100B9400E07053EE75F005A42400F582E43400F50A
:100BA40083EFF0EE75F005A42401F582E43400F53A
:100BB40083EDF0EE75F005A42402F582E43400F52B
:100BC40083EBF0EE75F005A42403F582E43400F51C
:100BD400837402F0EE75F005A42404F582E4340075
:0A0BE400F5837401F0220EBE08989C
:010BEE0022E4
:10097700E4FFE4FEEF75F018A42428F582E43400C0
:10098700F58375F003EE1202CEE4F0EF75F018A4CC
:100997002429F582E43400F58375F003EE1202CEC4
:1009A700E4F0EF75F018A4242AF582E43400F58307
:1009B70075F003EE1202CEE4F00EBE08B70FBF05C6
:1009C700B1E4FFEF75F007A424A6F582E43400F53F
:1009D70083E4F00FBF08ECE4FFEF75F005A42404EF
:1009E700F582E43400F583E4F00FBF08EC752700C7
:1009F700752864E4F51FF520752303752101120D91
:040A070088020DB3A1
:10064700E5216401600302074D120EE0EFB40900D3
:1006570040030206ED900663F828287302067E021F
:10066700068902069402069F0206AA0206ED020602
:10067700E00206E50206EAE52AD394004068152A57
:100687008064E52AC39404505D052A8059E525D383
:10069700940040521525804EE525C3940750470521
:1006A700258043E52A75F018A42428F582E4340050
:1006B700F58375F003E5251202CEE07029E5299050
:1006C7000DFB93FFC3E5289FE52794004018AB294E
:1006D700AD25AF2A120B15800D75290180087529E4
:1006E7000280037521020526E526C3940A4006E425
:1006F700F5261202DA0522E522C394054006E4F541
:100707002212001E051EE51EC39432400EE4F51E9C
:1007170074052528F528E43527F5270524E524C39E
:1007270094144006E4F524120A97120FF912082EC2
:10073700E523700F7521037F04120D50AF20AE1F04
:06074700120F19120DB3A0
:01074D002289
:100B15008F08EB900DFB93FF7E00C3E5289FE5272B
:100B25009E405BE5289FF528E5279EF527E5087596
:100B3500F018A42428F582E43400F58375F003ED5C
:100B45001202CEEBF0900DFE93FFE50875F018A4A8
:100B55002429F582E43400F58375F003ED1202CE05
:100B6500EFF0E50875F018A4242AF582E43400F5C1
:0F0B75008375F003ED1202CEE4F0FF120D502253
:10082E00051DE51DC3941E50030208D4E4F51DFFFB
:10083E00EF75F007A424A6F582E43400F583E0708A
:10084E007CEF75F00584AEF0EF75F007A424A0F5EB
:10085E0082E43400F583EEF0EF75F007A424A1F5E1
:10086E0082E43400F5837470F0EF75F007A424A2CF
:10087E00F582E43400F583740AF0EF75F007A424D2
:10088E00A3F582E43400F583E4F0EF75F007A424B9
:10089E00A4F582E43400F5837401F0EF75F007A43B
:1008AE0024A5F582E43400F583E4F0EF75F007A497
:1008BE0024A6F582E43400F5837401F0220FEF6470
:0608CE0008600302083E71
:0108D4002201
:1002DA00E4FFEF75F007A424A6F582E43400F58361
:1002EA00E07003020408EF75F007A424A1F582E484
:1002FA003400F583E075F00E84FE70151523EF7552
:10030A00F007A424A6F582E43400F583E4F002049D
:10031A0008EEC3940840030203DCEF75F007A42437
:10032A00A0F582E43400F583E075F018A42425F5DD
:10033A0082E43400F58375F003EE1202CEE0700316
:10034A000203DCEF75F007A424A5F582E43400F576
:10035A0083E004F0C3940A5003020408EF75F0071F
:10036A00A424A5F582E43400F583E4F0EF75F007E0
:10037A00A424A0F582E43400F583E075F018A424DF
:10038A0026F582E43400F58375F003EE1202CEE01E
:10039A0014F0EF75F007A424A0F582E43400F58385
:1003AA00E0FD75F018A42426F582E43400F583757F
:1003BA00F003EE1202CEE07045ED75F018A4242584
:1003CA00F582E43400F58375F003EE1202CEE4F010
:1003DA00802CEF75F007A424A1F582E43400F5839C
:1003EA00C083C082E0FEEF75F007A424A4F582E47E
:1003FA003400F583E0FDC3EE9DD082D083F00FEF89
:07040A00640860030202DC3C
:0104110022C8
:10001E00E4F508E50875F005A42404F582E434003F
:10002E00F583E07003020185E50875F005A424034D
:10003E00F582E43400F583E0FFE50875F005A424AD
:10004E0001F582E43400F583E02FF0E50875F00544
:10005E00A42401F582E43400F583E0C394804014B7
:10006E00E50875F005A42404F582E43400F583E474
:10007E00F0020185E4F509E50975F007A424A6F55B
:10008E0082E43400F583E07003020179E50875F02F
:10009E0005A42400F582E43400F583E0FFE509753C
:1000AE00F007A424A0F582E43400F583E06F60032A
:1000BE00020179E50975F007A424A1F582E4340064
:1000CE00F583E0FF24FCFEE50875F005A42401F598
:1000DE0082E43400F583E0FDC39E5003020179EF04
:1000EE002408FFE433FED3ED9FEE6480F87480980D
:1000FE005079E50975F007A424A2F582E43400F5E1
:10010E0083C083C082E0FFE50875F005A42402F5E4
:10011E0082E43400F583E0FEC3EF9ED082D083F0FC
:10012E00E50875F005A42404F582E43400F583E4B3
:10013E00F07F02120D50E50975F007A424A2F58296
:10014E00E43400F583E0702FE50975F007A424A6CA
:10015E00F582E43400F583E4F0740A2520F520E4FA
:10016E00351FF51F7F03120D50800C0509E509C3DD
:10017E00940850030200850508E508C3940850034F
:03018E000200214B
:01019100224B
:100A9700E4F508E4FCE50875F018A42428F582E4D9
:100AA7003400F58375F003EC1202CEE06402705057
:100AB700E50875F018A4242AF582E43400F5837557
:100AC700F003EC1202CEE004FFF0900DFAE493FE7F
:100AD700EFC39E402BE50875F018A4242AF582E49D
:100AE7003400F58375F003EC1202CEE4F0EC75F0F8
:100AF7000EA42408FD900DF9E493FBAF08120B84B4
:0D0B07000CBC08910508E508C39405408664
:010B140022BE
:060FF900E4FF0FBF08FC3D
:010FFF0022CF
:100DB300120D887BFF7A0D79DCE4FDFF120C497B71
:100DC300FF7A0D79E2E4FD7F3C120C497BFF7A0D3B
:090DD30079EA7D06E4FF020C49F7
:031006007F002246
:07000300E4FF000FBF0AFB40
:01000A0022D3
:100F5F00AE07120003C2A0C2A1D2A28E800000C2AF
:020F6F00A222BC
:100F7100AE07120003D2A0C2A1D2A28E800000C28D
:020F8100A222AA
:090FE700EF540744B8FF020F5F4C
:0A0F4C00120EC0AF05120FE7E4FF1C
:090F5600EF543F4440FF020F5F1D
:100EC000EF24FE600C14600E2402700FC2A3D2A4A3
:100ED00022D2A3C2A422C2A3C2A422D2A3D2A422F9
:100EFD00D2A3D2A4C2A2C2A0C2A17F3E120F5F7F15
:0C0F0D00C0120F5F7F3F120F5F020D88C3
:100D8800E4FD7F01120F4CE4FCE4FF120F710CBC70
:100D980040F77F02120F4CE4FCE4FF120F710CBC09
:0B0DA80040F70DBD08DC7F03020EC009
:0A053A008F088D098B0A8A0B890CCB
:10054400E509131313541FFDE509240FFFE433FEDB
:10055400EF7803CEC313CE13D8F9F5118D0DE50D45
:10056400D395114003020642E50DC39408400302EB
:100574000642E4F50EE508250EFDC394804003020F
:100584000631EDC3944050047F0180027F02120EB5
:10059400C0AF0D120FE7ED543FFF120F56E4F510F4
:0205A400F50F51
:1005A600E50D75F008A4250FF512C39509406CE515
:1005B600092410FFE433FEC3E5129FEE6480F8744D
:1005C60080985057C3E512950925E0FFE50E1313F1
:1005D60013541F2FF513E50E5407FFC374079FF539
:1005E60014AB0AAA0BA90C8513827583001202A10B
:1005F600FD7C0074017E00A814088005C333CE3349
:10060600CED8F9FFEE5CFEEF5D4E600FAF0F7401C2
:0B061600A807088002C333D8FC421084
:10062100050FE50F640860030205A6AF10120F71F4
:10063100050EE50EC394105003020579050D020560
:06064100627F03020EC0FF
:060412008F0D8D0E8B0F13
:10041800E50F2407FFE433FEEF7803CEC313CE13B2
:10042800D8F9F519E50E131313541FFDE50E251021
:10043800FFE433CF24FFCF34FFFEEF7803CEC3139E
:10044800CE13D8F9F5188D14E514D3951840030286
:100458000535E514C394084003020535E4F515E5B0
:1004680015C3950F4003020530E50D2515FDC3940E
:1004780080400302052BEDC3944050047F018002A5
:100488007F02120EC0AF14120FE7ED543FFF120F98
:0604980056E4F517F5160D
:10049E00E51475F008A42516F51AC3950E406EE501
:1004AE000E2510FFE433FEC3E51A9FEE6480F87448
:1004BE0080985059C3E51A950E8519F0A4FFE515DD
:1004CE00131313541F2FF51BE5155407FFC37407A1
:1004DE009FF51CAB11AA12A913851B8275830012FE
:1004EE0002A1FD7C0074017E00A81C088005C333A8
:1004FE00CE33CED8F9FFEE5CFEEF5D4E600FAF1639
:0D050E007401A807088002C333D8FC42170F
:10051B000516E5166408600302049EAF17120F71EF
:0F052B00051502046705140204507F03020EC079
:0408D5008F2B8B2DAD
:1008D900ED131313541FF530ED252EFFE433CF2408
:1008E900FFCF34FFFEEF7803CEC313CE13D8F9F947
:1008F900AC30ECD3995072ECC39408506CE4FBEB28
:10090900C3952D5061E52B2BFAC394805055EAC34A
:10091900944050047F0180027F02120EC0AF04127E
:100929000FE7EA543FFF120F56AF2FECB53014ED25
:100939005407FE600EE52FA806088002C333D8FCD1
:10094900FF801DECB50119E52E2D5407FE6011C37A
:1009590074089EFFE52FA807088002C313D8FCFF7F
:0E096900120F710B80990C80897F03020EC063
:090FF0008F318D328A338B3422DB
:100C49008F088D098B0A8A0B890CAB0AAA0BA90C90
:100C5900120288603175F008A42400F9740035F097
:100C69007511FFF51289137510087B08AD09AF08D6
:100C790012041274082508F5087401250CF50CE412
:070C8900350BF50B80C422BE
:0C0FB00000040901050802060703FFFF0A
:060CFF00013CFF013D0075
:100BEF0078087C007D007BFF7A0F79B07E007F0C48
:100BFF00120262E4FD43900F7401A805088002C33E
:100C0F0033D8FCF4529000000000E4FC74107E0016
:100C1F00A804088005C333CE33CED8F9FFAB90EFCD
:100C2F005B700CED75F003A424082CF8E6FF220C82
:090C3F00BC03D90DBD04BE7FFF0A
:010C48002289
:100EE000120BEFEFF4600AE53D700F753D058F3C86
:0C0EF00022E53DD394004002153D7FFF39
:010EFC0022D3
:0A0FDD00FC66FE33FD80FD34FBE8E6
:0C0D0500013600013800013900013705FB
:06100000438920C2B42266
:100D5000EFC3940550318F3775360175390FE4F5BF
:100D600038EF25E024DDF582E4340FF583E493F5D4
:100D70008DEF25E024DEF582E4340FF583E493F56E
:080D80008BD28ED2ABD2AF2260
:0D0FA300C28EC2ABC2B4E4F536753705222C
:03001B00021009C7
:03100900B2B4324C
:100F8300E536600C0538E538C395394003120FA3E5
:010F9300223B
:060FC800EF25E0FFD2B6A8
:050FCE000000000022FC
:0F0F9400D2B5D2B6120FCEC2B5120FCEC2B62250
:0C0FBC00C2B5D2B6120FCED2B5020FCED5
:100E7800E4FEEF5480FDC4131313540124FF92B50C
:100E8800120FC8C2B6120FCE0EBE08E6D2B5D2B641
:050E9800120FCEC2B6EE
:010E9D002232
:100F3400E4FFD2B5FE120FC8A2B5E4334207C2B62D
:070F4400120FCE0EBE08EEF5
:010F4B002283
:100E9E008F0A8D0B120F947FA0120E78120000AFE6
:100EAE000A120E78120000AF0B120E78120000021A
:020EBE000FBC67
:020E2B008F3EF8
:100E2D00120F947FA0120E78120000AF3E120E78B2
:100E3D00120000120F947FA1120E78120000120FF3
:040E4D0034120FBC90
:010E5100227E
:100F19008E088F09E508FDE4FF120E9EE509FD7FA5
:0B0F290001120E9E7D5A7F0A020E9EF0
:03000000020A0BE6
:0C0A0B00787FE4F6D8FD75813E020A52A7
:10019200E709F608DFFA8046E709F208DFFA803E4F
:1001A20088828C83E709F0A3DFFA8032E309F6083C
:1001B200DFFA8078E309F208DFFA807088828C83A4
:1001C200E309F0A3DFFA806489828A83E0A3F60858
:1001D200DFFA805889828A83E0A3F208DFFA804C32
:1001E20080D280FA80C680D4806980F28033801009
:1001F20080A680EA809A80A880DA80E280CA803372
:1002020089828A83ECFAE493A3C8C582C8CCC583E9
:10021200CCF0A3C8C582C8CCC583CCDFE9DEE780B9
:100222000D89828A83E493A3F608DFF9ECFAA9F038
:10023200EDFB2289828A83ECFAE0A3C8C582C8CC8E
:10024200C583CCF0A3C8C582C8CCC583CCDFEADEA7
:10025200E880DB89828A83E493A3F208DFF980CC09
:1002620088F0EF60010E4E60C388F0ED2402B40402
:100272000050B9F582EB2402B4040050AF232345A9
:0602820082239001E273EB
:10028800BB010689828A83E0225002E722BBFE0274
:09029800E32289828A83E49322A7
:1002A100BB010CE58229F582E5833AF583E0225012
:1002B10006E92582F8E622BBFE06E92582F8E2225C
:0D02C100E58229F582E5833AF583E4932276
:0C02CE00A42582F582E5F03583F583223B
:100A1700020D12E493A3F8E493A34003F68001F2D6
:100A270008DFF48029E493A3F85407240CC8C333E0
:100A3700C4540F4420C8834004F456800146F6DFAF
:100A4700E4800B0102040810204080900CD3E47E60
:100A5700019360BCA3FF543F30E509541FFEE493A4
:100A6700A360010ECF54C025E060A840B8E493A36B
:100A7700FAE493A3F8E493A3C8C582C8CAC583CA96
:100A8700F0A3C8C582C8CAC583CADFE9DEE780BE4E
:010D110000E1
:00000001FF
