:10000E00544F57455220444546454E5345003E53A6
:10001E005441525400205354415254003E444946D8
:10002E004620494E464F00204449464620494E46FA
:10003E004F003E484953544F52590020484953549B
:10004E004F5259003E4558495400204558495400D6
:10005E00444946464943554C5459003E454153592F
:10006E00002045415359003E4D494400204D49441E
:10007E00003E484152440020484152440053454CF2
:10008E00454354204D4150003E35204C494E4500CD
:10009E002035204C494E45003E33204C494E4500FC
:1000AE002033204C494E45002A202D2023203D0090
:1000BE00452041204D205400424153450048503ABE
:1000CE0000454E3A00543A005041555345002A3DE2
:1000DE00434F4E54494E554500353D4241434B200A
:1000EE004D454E550057494E21004C4F534521006A
:1000FE004B494C4C3A00484953544F5259004E4FBD
:10010E00205245434F52440057494E20004C4F5306
:10011E00450045415359004D494420004841524441
:10012E00002A3D4241434B004449464620494E4633
:10013E004F00454153593A203520454E2C20313041
:10014E0020454E454D59004D49443A203420454EE8
:10015E002C20313320454E454D5900484152443AEA
:10016E00203320454E2C20313620454E454D59002A
:10017E00353D4241434B00455849540000000000B4
:10018E00000000000A140405000A0100141E0503F5
:10019E00010A02000F1E0704020F030000280000D0
:1001AE000000021400000000000A3208010A141EAA
:1001BE000A010A04050A05051403040D07060F02B9
:1001CE00031009070C0000000000000000000000F2
:1001DE00000000000000007E8181817E00007E8193
:1001EE0081817E00000000814224184281008142FC
:1001FE002418428100000000007E00000000000074
:10020E007E000000000000007E007E000000007EE8
:10021E00007E0000000000147F147F140000147F85
:10022E00147F140000000022147F142200002214F8
:10023E007F1422000000000000000018180018189B
:10024E000000000000003E4141413E0000003E41E2
:10025E0041413E00000000007F0000000000000051
:10026E007F000000000071494949460000004649E0
:10027E00494971000000494949497F0000007F4902
:10028E004949490000000F0808087F0000007F0858
:10029E0008080F0000004F494949790000007949CC
:1002AE0049494F0000007F494949790000007949CA
:1002BE0049497F000000010101017F0000007F011C
:1002CE000101010000007F4949497F0000007F497C
:1002DE0049497F0000004F4949497F0000007F498E
:1002EE0049494F0000007F0808087F0000007F0882
:1002FE0008087F0000007F404040400000007F4023
:10030E004040400000007F0808087F0000007F0882
:10031E0008087F0000007F0101017F0000007F01BF
:10032E0001017F0000007F4141417F0000007F41BD
:10033E0041417F0000007F090909060000000609FF
:10034E0009097F0000007F0101017F0000007F414D
:10035E0041417F0000007F090909760000007609FF
:10036E0009097F0000004F49494979000000794989
:10037E0049494F00000001017F0101000000010109
:10038E007F01010000007F4040407F0000007F4061
:10039E0040407F0000003F4040403F0000001F20D3
:1003AE0020201F0000007F4030407F0000007F2093
:1003BE0010207F0000006314081463000000631413
:1003CE0008146300000007087808070000000708FB
:1003DE007808070000007149454341000000414381
:1003EE004549710000003E4141413E0000003E4142
:1003FE0041413E0000007F414141410000007F41EC
:10040E004141410000007F010101010000007F0118
:10041E000101010000007F4149494900000049499E
:10042E0049417F0000007F0808087F0000007F0818
:10043E0008087F000000404040407F0000007F40E1
:10044E004040400000007F0814224100000041227D
:10045E0014087F0000007F404040400000007F40B5
:10046E004040400000007F4141417F0000007F413D
:10047E0041417F0000007F4949497F0000007F49CC
:10048E0049497F00000000363600000000000036AB
:10049E00360000000000000000007F000000000099
:1004AE0000007F0000000102030405060708090A88
:0104BE000B32
:1016F200010C00010A00010D000113000118010193
:101702001902011750011B00020F00000211000014
:10171200011600011C00011D00010B00010E000159
:0C17220015FF011A00011401020800006C
:1018DC00E4FDFCC3ED9FEC9E5015E4FBFA0BBB0042
:0F18EC00010AEB64724A70F50DBD00010C80E437
:0118FB0022CA
:10191A00C2A17F0112192C8D807F0212192CD2A22A
:02192A007F0537
:0A192C00AE071FEE60030080F722F3
:10198700EF7005C2A3D2A422BF0105D2A3C2A4222D
:08199700BF0204C2A3C2A42296
:10199F00AD07C2A27F0112192CC2A012191AC2A23E
:0519AF007F0202192C6B
:1018110075F010E530A424D3F582E5F03401F583A9
:0D182100E5822CF582E43583F583E493FF26
:10182E00AD07C2A27F0112192CD2A012191AC2A2A0
:05183E007F0202192CDD
:10189600D2A3C2A4C2A0C2A1C2A27F327E001218E5
:1018A600DC7F021219877FC012199F7F3F12199F92
:0318B6000218B95C
:10186D00EF75F008A4FCC394405007E4FF121987EC
:10187D0080097F0112198774C02CFCED44B8FF124A
:09188D00199FEC4440FF02199F71
:1018B9007F02121987E4FCEC44B8FF12199F7F409C
:1018C90012199FE4FBE4FF12182E0BBB40F70CBC66
:0218D90008E520
:0118DB0022EA
:0B118E00E51775F00A84E5F02430FB43
:041199008F2E8D2FD9
:10119D00E4F530EBC39430400DEBD394395007EBAD
:1011AD0024D8F5308066EBC39441400DEBD3945AAF
:1011BD005007EB24D1F5308053EB1208B111FD230C
:1011CD0012022A11F32D12072E12113A11F83D12A7
:1011DD000C3E11E94F11EE580000121675300180CA
:1011ED002B75300280267530038021753004801CEC
:1011FD0075300580177530068012753007800D75B6
:10120D00302C800875302B8003E4F530AD2FAF2ED8
:10121D0012186DE4FC1218110CBC08F9E52F04FD31
:0E122D00AF2E12186D7C081218110CBC10F9AF
:01123B002290
:06172F007BFF7D02E4FFD8
:101735008F298D2A8B2B8A2C892DAB2BAA2CA92D91
:101745001207E26020E529C394105019AF29052935
:10175500052DE52D7002052C14F91207E2FBAD2AC3
:0617650012119980D5224B
:1010D80078277C007D007BFF7A0479B37E007F0C43
:1010E8001207BC7515FFE4F526E526C394044003F2
:1010F80002118DD290D291D292D293E52614600E2D
:1011080014600F1460102403700EC290800AC291FC
:101118008006C2928002C2937F057E001218DCE42A
:07112800F9E9C394035059DB
:10112F00753301E914600B14600C2402700EA29445
:10113F008006A2958002A296E433F533E53370362C
:10114F007F14FE1218DCE533702CE52675F003A42E
:10115F00242729F8E6F515E5337023E914600B14FD
:10116F00600C240270F1A2948006A2958002A296D0
:06117F00E433F53380E1CA
:081185000980A105260210F10A
:01118D00223F
:1019B400438901758CB1758AE0D2A9D2AFD28C2249
:0415E4008F218D22A4
:1015E800E50945087006850F08851009AE08AF099A
:1015F800E4FCFD7B6D7A4E79C67841120862EF24CF
:1016080039F509EE3430F508C3E5229521FFE49455
:1016180000CF2401FDE43FFCAE08AF0912080DE538
:03162800212DFF72
:01162B00229C
:10193600E4FFEF75F006A4248AF582E43400F5830B
:0A194600E07001220FBF0AEA7FFFE4
:011950002274
:10195100E4FFEF75F007A4244AF582E43400F5832F
:0A196100E07001220FBF0AEA7FFFC9
:01196B002259
:10196C00E4FFEF75F007A4240CF582E43400F58352
:0A197C00E07001220FBF08EA7FFFB0
:01198600223E
:10167000E4FEEE75F006A4248AF582E43400F583D6
:10168000E06027EE75F006A4248BF582E43400F5C3
:1016900083E0B50715EE75F006A4248CF582E434DA
:1016A00000F583E0B50503AF06220EBE0AC47FFF36
:0116B0002217
:1016B100E4FEEE75F007A4244AF582E43400F583D4
:1016C100E06027EE75F007A42445F582E43400F5C7
:1016D10083E0B50715EE75F007A42446F582E434DE
:1016E10000F583E0B50503AF06220EBE0AC47FFFF5
:0116F10022D6
:1017A60078067C007D017B017A0079007E007F0649
:1017B6001207BC900000E50AF0A3E517F0A3E511B7
:1017C600F0A3E512F0A3E50BF0A3E51DF0E50EC3CB
:0717D60094025002050E22EF
:100F5C00E4FFEF75F006A4248AF582E43400F583EF
:100F6C00E4F0EF75F006A4248DF582E43400F583EB
:100F7C00E4F0EF75F006A4248EF582E43400F583DA
:100F8C00E4F0EF75F006A4248FF582E43400F583C9
:100F9C00E4F00FBF0ABCE4FFEF75F007A4244AF598
:100FAC0082E43400F583E4F0EF75F007A42447F5F0
:100FBC0082E43400F583E4F00FBF0ADCE4FFEF7544
:100FCC00F007A4240CF582E43400F583E4F0EF750B
:100FDC00F007A42412F582E43400F583E4F00FBF8B
:100FEC0008DC751750E50A75F006A424C2F582E4F6
:100FFC003401F583E493F51BE4F50FF510F511F5C9
:10100C0012F516F51CF51D751801751902751401EC
:01101C0022B1
:100D2500E50A75F006A424C1F582E43401F583E4EF
:100D350093FF7E007C007D321207FBC3E5109FE523
:100D45000F9E5003020E55E50A75F006A424C3F55F
:100D550082E43401F583E493FFE51CC39F4003025D
:100D65000E550516E50A75F006A424C6F582E43489
:100D750001F583E493FFE516C39F5003020E55E486
:100D8500F5161219518F1EE51EF47003020E55E576
:100D95000A75F006A424C4F582E43401F583E493CE
:100DA500FFE51CC39F5005751F018003751F02E5F4
:100DB5000D70057D04FF80047D037F011215E48F0E
:100DC50020E51E75F007A42444F582E43400F5837C
:100DD500E51FF0E51E75F007A42445F582E434000F
:100DE500F5837405F0E51E75F007A42446F582E445
:100DF5003400F583E520F0E51F75F005A424B3F56F
:100E050082E43401F583E493FFE51E75F007A4241D
:100E150047F582E43400F583EFF0E51E75F007A48D
:100E25002448F582E43400F583E4F0E51E75F00707
:100E3500A42449F582E43400F583E4F0E51E75F059
:100E450007A4244AF582E43400F5837401F0051CF7
:010E5500227A
:1004BF00E4FEEE75F006A4248AF582E43400F58399
:1004CF00E070030206E2EE75F006A4248EF582E4D6
:1004DF003400F583E0D394004011EE75F006A424A8
:1004EF008EF582E43400F583E014F0EE75F006A487
:1004FF00248AF582E43400F583E064047047EE75D6
:10050F00F006A4248FF582E43400F583E004F0EEC6
:10051F0075F006A4248FF582E43400F583E0C394CC
:10052F001450030206E2EE75F006A4248FF582E460
:10053F003400F583E4F0E51BC3940940030206E29F
:10054F00051B0206E2EE75F006A4248EF582E43454
:10055F0000F583E0D3940040030206E2E4FDED755D
:10056F00F007A4244AF582E43400F583E070030217
:10057F0006D9EE75F006A4248BF582E43400F583DA
:10058F00E0FFED75F007A42445F582E43400F58310
:10059F00E0FCD39F4005EC9FFF8022ED75F007A490
:1005AF002445F582E43400F583E0FFEE75F006A4F0
:1005BF00248BF582E43400F583E0C39FFFEFD394DF
:1005CF000540030206D9EE75F006A4248CF582E4EB
:1005DF003400F583E0FFED75F007A42446F582E4BF
:1005EF003400F583E06F60030206D912196CEFF443
:1005FF0070030206E2EF75F007A4240CF582E434D1
:10060F0000F5837401F0EE75F006A4248BF582E4F7
:10061F003400F583E004FCEF75F007A4240DF58298
:10062F00E43400F583ECF0EE75F006A4248CF5822B
:10063F00E43400F583E0FCEF75F007A4240EF58297
:10064F00E43400F583ECF0EE75F006A4248AF5820D
:10065F00E43400F583E075F008A4248AF582E434CD
:10066F0001F583E493FCEF75F007A4240FF582E402
:10067F003400F583ECF0EF75F007A42410F582E455
:10068F003400F5837404F0ED75F007A42446F58269
:10069F00E43400F583E0FDEF75F007A42411F58233
:1006AF00E43400F583EDF0EF75F007A42412F58222
:1006BF00E43400F583E4F0EE75F006A4248EF582A1
:1006CF00E43400F583740AF080090DED640A6003C9
:0C06DF0002056D0EEE640A60030204C107
:0106EB0022EC
:100E5600E4FCEC75F007A4240CF582E43400F58379
:100E6600E07003020F52EC75F007A42412F582E439
:100E76003400F583E004F0EC75F007A42412F58243
:100E8600E43400F583E0C394024021EC75F007A436
:100E96002412F582E43400F583E4F0EC75F007A43F
:100EA600240DF582E43400F583E004F0EC75F007D8
:100EB600A4240DF582E43400F583E0FFC3940640D4
:100EC60012EC75F007A4240CF582E43400F583E4F3
:100ED600F08079EC75F007A42411F582E43400F56E
:100EE60083E0FD1216B1EFF46062EF75F007A424FB
:100EF60047F582E43400F583C083C082E0FEEC75DA
:100F0600F007A4240FF582E43400F583E0FDC3EE78
:100F16009DD082D083F0EC75F007A4240CF582E412
:100F26003400F583E4F0EF75F007A42447F582E476
:100F36003400F583E0D394005012EF75F007A42433
:100F46004AF582E43400F583E4F0051D0CEC6408F0
:050F56006003020E58CB
:010F5B002273
:100A7200E4FCEC75F007A4244AF582E43400F58323
:100A8200E07003020BD8EC75F007A42448F582E469
:100A92003400F583E0D394004011EC75F007A424F0
:100AA20048F582E43400F583E014F0EC75F007A415
:100AB2002445F582E43400F583E014FFEC75F00779
:100AC200A42446F582E43400F583E0FD121670EFAB
:100AD200F47003020B61EC75F007A42448F582E47C
:100AE2003400F583E06003020BD8EF75F006A4240E
:100AF2008DF582E43400F583C083C082E0FEEC759C
:100B0200F007A42444F582E43400F583E075F0058F
:100B1200A424B2F582E43401F583E493FDC3EE9D8F
:100B2200D082D083F0EC75F007A42448F582E43437
:100B320000F583740AF0EF75F006A4248DF582E4C3
:100B42003400F583E0D394004003020BD8EF75F034
:100B520006A4248AF582E43400F583E4F08077EC7D
:100B620075F007A42449F582E43400F583E004F02B
:100B7200EC75F007A42449F582E43400F583E0C360
:100B820094044052EC75F007A42449F582E4340041
:100B9200F583E4F0EC75F007A42445F582E4340013
:100BA200F583E014F0EC75F007A42445F582E434F3
:100BB20000F583E0702074EC2517F517C3940050FC
:100BC20003E4F517EC75F007A4244AF582E4340037
:0F0BD200F583E4F0051D0CEC640A6003020A745D
:010BE10022F1
:1017DD00E517D394005008E4F517F50B121365E5E2
:1017ED000A75F006A424C3F582E43401F583E4936D
:1017FD00FFE51CC39F400CE51D951C4006750B01B4
:04180D00121365222B
:0514D200E4F50CF51328
:1014D7001218B97BFF7A00790EE4FD7F01121735E8
:1014E700E5137BFF70067A00791C80047A00792364
:1014F700121731E5137BFFB401067A00792A8004BD
:101507007A0079357D03E4FF121735E5137BFFB4C5
:1015170002067A00794080047A0079497D04E4FF65
:10152700121735E5137BFFB403067A00795280045E
:0B1537007A0079587D06E4FF021735AA
:06154200E4F513750C0135
:101548001218B97BFF7A00795EE4FD7F0312173524
:10155800E5137BFF70067A00796980047A00796F59
:10156800121731E5137BFFB401067A007975800400
:101578007A00797A7D027F05121735E5137BFFB46F
:1015880002067A00797F80047A0079857D027F0AD5
:0315980002173502
:10176B001218B97BFF7A00798BE4FD7F03121735D2
:10177B00E5137BFF70067A00799680047A00799ED8
:10178B00121731E5137BFFB401067A0079A68004AA
:0B179B007A0079AE7D027F080217354E
:1008D7001218B97BFF7A0079B6E4FDFF1217357B52
:1008E700FF7A0079BE7D01E4FF1217357A0079C6D9
:1008F70012172F7BFF7A0079CB7D04E4FF1217359F
:10090700E51775F00A842430FB7D05E4FF12119981
:100917007D057F0112118E7BFF7A0079CFE4FD7F81
:100927000A121735E51B2430FBE4FD7F0D121199E0
:100937007BFF7A0079D37D017F0B121735AE11AF9C
:10094700127C007D0A12080DEF2430FB7D017F0D1C
:10095700121199AE11AF127C007D0A12080DED2419
:1009670030FB7D017F0E121199E4FAE4F9E925E0E5
:100977002402F526EA2402F527E526C3941040034E
:10098700020A517B20AD27AF26121199AF01AD02A4
:10099700121670EFF46030EF75F006A4248AF58222
:1009A700E43400F583E024FE601114601214601330
:1009B70024036003020A487B2D802F7B3D802B7B1D
:1009C7002380277B2A8023AF01AD021216B1EFF4F3
:1009D700601EEF75F007A42444F582E43400F58324
:1009E700E0B401047B4F80027B58AD27AF268043DC
:1009F700E4F528E52875F007A4240CF582E4340013
:100A0700F583E06033E52875F007A4240DF582E44B
:100A17003400F583E0B50120E52875F007A4240E1E
:100A2700F582E43400F583E0B5020DE52604FF7B8B
:100A37002EAD2712119980090528E528C39408408F
:100A4700B209E9640660030209740AEA64056003EF
:100A5700020972E51825E02402FFE5192402FDEFDB
:0A0A6700C3941050057B231211996F
:010A71002262
:101843001218B97BFF7A0079D6E4FD7F05121735AC
:101853007BFF7A0079DC7D027F021217357BFF7AEA
:0A1863000079E77D047F02021735CB
:06136500750C051217A62D
:10136B001218B9E50B7BFFB4010A7A0079F3E4FD9F
:10137B007F0680087A0079F8E4FD7F051217357A2D
:10138B000079FE12172FE51D75F00A842430FB7DC2
:10139B00027F05121199E51D75F00A84E5F02430E2
:1013AB00FB7D027F061211997BFF7A0079CB7D03BF
:1013BB00E4FF121735E51775F00A842430FB7D0323
:1013CB007F031211997D037F0412118E7BFF7A002C
:0913DB0079E77D05E4FF021735F6
:10123C001218B97BFF7A017904E4FD7F041217358B
:10124C00E50E700F7BFF7A01790C7D037F0312177B
:03125C0035806D6D
:0A125F00E4F526E526C3950E506362
:10126900E52625E02402F527E52675F006A42404E1
:10127900F582E43400F583E07BFF60067A01791694
:1012890080047A01791BAD27E4FF121735E526752D
:10129900F006A42400F582E43400F583E0FF700829
:1012A9007BFF7A0179208010EF7BFFB401067A0178
:0F12B900792580047A01792AAD277F0512173530
:0412C80005268096E1
:0D12CC007BFF7A01792F7D07E4FF021735C3
:10101D00E515F470030210D7E51514601724FD6073
:10102D001E240460030210D4E513D39400400E1562
:10103D00130210B5E513C39403500205138069E53F
:10104D001314600F14606614606B2403707912150D
:10105D004280741218B97BFF7A017936E4FD7F0165
:10106D001217357BFF7A0179401217317BFF7A0118
:10107D0079557D03E4FF1217357BFF7A0179697D80
:10108D0004E4FF1217357BFF7A01797E7D06E4FFBC
:10109D00121735E5156404600C1210D87F0A7E0016
:1010AD001218DC80EE7515FF1214D7801A750C0618
:1010BD0012123C80121218B97BFF7A017985E4FD7A
:0B10CD007F0312173580FE7515FF220F
:10159B00E515F46043E51514601724FD602124FB69
:1015AB00602B2409702FE513D39400400D15138085
:1015BB0009E513C3940250020513121548801685D2
:1015CB00130AE4F513750C0212176B8008E4F5137C
:0915DB00F50C1214D77515FF225E
:10162C00E515F4603EE51514601724FD602124FBDC
:10163C00602B2409702AE513D39400400D151380F8
:10164C0009E513C394015002051312176B80118521
:10165C00130D120F5C750C031208D7800312154280
:04166C007515FF22CF
:100BE200E515F47003020D24E515B40A0040030272
:100BF2000D21900BFBF8282873020C19020C250218
:100C02000C31020C3D020C49020C53020D21020D63
:100C120021020D21020D1BE519D39400402615195E
:100C2200020D16E519C3940450020519020D16E5CA
:100C320018D3940040021518020D16E518C3940546
:100C420050020518020D16E514540304F514020DA2
:100C520021E50DB4010EE5197003020D2164047043
:100C620003020D21AD19AF18121670EFF4600302E2
:100C72000D21E51475F008A42490F582E43401F501
:100C820083E493FFE51BC39F5003020D2112193623
:100C9200EFF47003020D21EF75F006A4248AF582A9
:100CA200E43400F583E514F0EF75F006A4248BF527
:100CB20082E43400F583E518F0EF75F006A4248C85
:100CC200F582E43400F583E519F0E51475F008A423
:100CD200248BF582E43401F583E493FEEF75F0068C
:100CE200A4248DF582E43400F583EEF0EF75F0066E
:100CF200A4248EF582E43400F583E4F0E51475F063
:100D020008A42490F582E43401F583E493FFC3E55B
:100D12001B9FF51B751A018006750C04121843758A
:020D220015FFBB
:010D240022AC
:1018FC00E515F46018E51524FC600C24FB700B75E1
:0E190C000C03751A0180031214D27515FF2208
:0C19C400E515B404031214D27515FF22BF
:0C19D000E515B409031214D27515FF22AE
:03000B0002145F7D
:10145F00C0E0C0F0C083C082C0D075D000C000C053
:10146F0001C002C003C004C005C006C007758CB11F
:10147F00758AE00510E5107002050FAE0FFF7C00B6
:10148F007D3212080DED4C70080512E51270020541
:10149F0011E50CB40312120D251204BF120E5612D1
:1014AF000A721217DD751A01D007D006D005D004C5
:1014BF00D003D002D001D000D0D0D082D083D0F0D2
:0314CF00D0E03238
:1013E4007580FF7590FF75A0FF75B0FFD2B7121816
:1013F400961219B47FE87E031218DCE4F50C12147B
:10140400D71210D8E50CB407005047901416F828EA
:10141400287302142B02143002143502143A0214F5
:101424004902144E02145312101D802612159B807B
:101434002112162C801C120BE2E51A60151208D733
:10144400E4F51A800D1218FC80081219C4800312E6
:0B14540019D07F0A7E001218DC80A671
:030000000212D910
:0C12D900787FE4F6D8FD75813302132005
:1006EC00E709F608DFFA8046E709F208DFFA803EF0
:1006FC0088828C83E709F0A3DFFA8032E309F608DD
:10070C00DFFA8078E309F208DFFA807088828C8344
:10071C00E309F0A3DFFA806489828A83E0A3F608F8
:10072C00DFFA805889828A83E0A3F208DFFA804CD2
:10073C0080D280FA80C680D4806980F280338010A9
:10074C0080A680EA809A80A880DA80E280CA803312
:10075C0089828A83ECFAE493A3C8C582C8CCC5838A
:10076C00CCF0A3C8C582C8CCC583CCDFE9DEE7805A
:10077C000D89828A83E493A3F608DFF9ECFAA9F0D9
:10078C00EDFB2289828A83ECFAE0A3C8C582C8CC2F
:10079C00C583CCF0A3C8C582C8CCC583CCDFEADE48
:1007AC00E880DB89828A83E493A3F208DFF980CCAA
:1007BC0088F0EF60010E4E60C388F0ED2402B404A3
:1007CC000050B9F582EB2402B4040050AF2323454A
:0607DC00822390073C732C
:1007E200BB010689828A83E0225002E722BBFE0215
:0907F200E32289828A83E4932248
:1007FB00EF8DF0A4A8F0CF8CF0A428CE8DF0A42E12
:02080B00FE22CB
:10080D00BC000BBE0029EF8DF084FFADF022E4CCCF
:10081D00F875F008EF2FFFEE33FEEC33FCEE9DEC98
:10082D00984005FCEE9DFE0FD5F0E9E4CEFD22EDDE
:10083D00F8F5F0EE8420D21CFEADF075F008EF2F28
:10084D00FFED33FD4007985006D5F0F222C398FD19
:05085D000FD5F0EA22B6
:10086200E88FF0A4CC8BF0A42CFCE98EF0A42CFC35
:100872008AF0EDA42CFCEA8EF0A4CDA8F08BF0A4B3
:100882002DCC3825F0FDE98FF0A42CCD35F0FCEB12
:100892008EF0A4FEA9F0EB8FF0A4CFC5F02ECD39D7
:0F08A200FEE43CFCEAA42DCE35F0FDE43CFC2244
:1008B100D083D082F8E4937012740193700DA3A3D6
:1008C10093F8740193F5828883E4737402936860EA
:0608D100EFA3A3A380DFEA
:1012E5000213E4E493A3F8E493A34003F68001F228
:1012F50008DFF48029E493A3F85407240CC8C3330A
:10130500C4540F4420C8834004F456800146F6DFD8
:10131500E4800B01020408102040809016F2E47E60
:10132500019360BCA3FF543F30E509541FFEE493CD
:10133500A360010ECF54C025E060A840B8E493A394
:10134500FAE493A3F8E493A3C8C582C8CAC583CABF
:10135500F0A3C8C582C8CAC583CADFE9DEE780BE77
:01172E0000BA
:00000001FF
